:100000000C9434000C9451000C9451000C94510049
:100010000C9451000C9451000C9451000C9451001C
:100020000C9451000C9451000C9451000C9451000C
:100030000C9451000C9451000C9451000C945100FC
:100040000C9451000C9451000C9451000C945100EC
:100050000C9451000C9451000C9451000C945100DC
:100060000C9451000C94510011241FBECFEFD8E026
:10007000DEBFCDBF12E0A0E0B1E0EAE3F1E202C0F2
:1000800005900D92A43FB107D9F725E0A4EFB2E0A7
:1000900001C01D92A632B207E1F70E944D0B0C94ED
:1000A0009B100C940000880F0E943206811104C03E
:1000B0000E94540680E0089581E00E945806811550
:1000C000B9F30E94540681E008950F931F93CF93D4
:1000D000DF9300D00F92CDB7DEB769837A83880FA4
:1000E0008B830E94320681110BC00E94540680E06F
:1000F0000F900F900F90DF91CF911F910F91089566
:1001000080E10E945806811581F30E9454062FEF6A
:1001100089EC98E0215080409040E1F700C0000059
:100120008B8181600E9432068115F9F20E94690676
:10013000082F0E9472068B830E945406EB81F02FD9
:100140009F01A5E0B0E00E94570E26E030E040E0BD
:1001500050E00E948A0EE981FA812083318381E098
:10016000C7CFCF93DF9300D0CDB7DEB769834A8383
:10017000880F0E943206811108C00E94540680E058
:100180000F900F90DF91CF91089589810E945806BA
:10019000811599F38A810E945806811571F30E9496
:1001A000540681E0EDCF0F931F93CF93DF9300D0E0
:1001B00000D000D0CDB7DEB7162F49835E832B83E6
:1001C000880F8C830E94320681110EC00E94540653
:1001D00080E00F900F900F900F900F900F90DF9195
:1001E000CF911F910F910895812F0E94580681157C
:1001F00069F38C8181600E943206811539F309818F
:100200001E811C821D822B812150330B29833A834E
:1002100089819A81EC81FD818E179F0799F40E9454
:100220007206F80181938F012C813D812F5F3F4F32
:100230002C833D838B812817310551F70E9454068A
:1002400081E0C7CF0E946906ECCFAB0121E060EDF1
:100250000C94D300CF93DF93CDB7DEB7A3970FB63F
:10026000F894DEBF0FBECDBF8BA31AA2BE016E5D98
:100270007F4F0E942501811509F4CCC09AA19036C8
:1002800021F0983509F0C6C080E08093F4022AE19D
:10029000AE014F5F5F4F68E88BA10E94D3008115CC
:1002A00009F4B8C089818093F5028A818093F602AF
:1002B0008B818093F7028C818093F8028D818093EB
:1002C000F9028E818093FA028F818093FB028885E8
:1002D0008093FC0289858093FD028A858093FE02CB
:1002E0008B858093FF028C85809300038D8580939E
:1002F00001038E85809302038F8580930303888991
:10030000809304038989809305038A898093060377
:100310008B89809307038C89809308038D89809350
:1003200009038E8980930A038F8980930B03888D3C
:1003300080930C0310920D0310920E0310920F0382
:1003400010921003109211031092120310921303D3
:1003500010921403109215038091F402811509F490
:1003600045C027E0AE01455E5F4F61EE8BA10E9464
:10037000D300811509F44EC08A8D80930D038B8DB7
:100380009C8D80930E0390930F038D8D80931003AB
:100390002F8D8E8D30E1839FC0011124322F3F704D
:1003A000AC01432B93FD506F409311035093120304
:1003B00088A140E1849FC001112422952F70AC01D7
:1003C000422B9A0193FD306F209313033093140353
:1003D00089A1809315038091F402811539F041E0E1
:1003E00062EF8BA10E94B1008115A1F040EA65EF98
:1003F0008BA10E94B100811569F047E264EF8BA1E7
:10040000A3960FB6F894DEBF0FBECDBFDF91CF919C
:100410000C94B10080E0A3960FB6F894DEBF0FBE37
:10042000CDBFDF91CF9108952F923F924F925F926F
:100430006F927F928F929F92AF92BF92CF92DF92F4
:10044000EF92FF920F931F93CF93DF93CDB7DEB759
:100450006E970FB6F894DEBF0FBECDBF1B01909113
:10046000F40228E0911101C026E0AE014F5F5F4F1A
:1004700067EF0E94D3008D8F811509F421C3998005
:100480008A80EB80EE8E8C81A0E0B0E0982F80E037
:1004900014E0880F991FAA1FBB1F1A95D1F74D8131
:1004A00050E060E070E004E0440F551F661F771FC6
:1004B0000A95D1F7842B952BA62BB72B2E8122954D
:1004C0002F707C018D01E22A9701A8016091F5024D
:1004D0007091F6022B01612C712CE4E0B695A79582
:1004E00097958795EA95D1F76C017D01C61AD70AD1
:1004F000E108F108F3E05595479537952795FA956A
:10050000D1F7440C551C661C771C24193509460983
:100510005709A091F702B091F8020E94D60E472E1B
:10052000582E692E990F7708B3E065945794479435
:10053000BA95D9F79601A701B601C7010E94660EC8
:10054000272F382F492F990F550B14E045953795D4
:1005500027951A95D9F7A091F902B091FA020E9455
:10056000D60E672F782F892F990F990B06E0859566
:10057000779567950A95D9F782019301060F171FA2
:10058000281F391F098F1A8F2B8F3C8F009316035A
:10059000109317032093180330931903A5E0B0E0DC
:1005A000A90198010E94CB0E60587F4F8F4F9F4F3B
:1005B000672F782F892F990F990BD1016D937D9318
:1005C0008D939D93345F4140510929013A01B9014E
:1005D000CA010E94360F29873A8B4B8B5C8B6D8B3F
:1005E0007E8B8F8B988F2091FF0230910003932F89
:1005F000990F990BA984BA886A017B01082F188D7D
:10060000492F592F692F792F892F0E94DE0E232F12
:10061000342F452F562F672F782F892F990F990B3D
:100620002A873B874C875D876E877F87888B998B6E
:100630006091FD027091FE02872F880F880B982F22
:100640009201A3010E94360F0CE00E94471059014D
:100650006A017B018C012A853B854C855D856E8511
:100660007F85888999890E947D1070588F4F9F4F90
:10067000C090FB02D090FC025601C12CD12C760117
:1006800086010E94DE0E01E20E9460102A873B87ED
:100690004C875D876E877F87888B998BA0E00E944F
:1006A0008F1009F427C22091050330910603932F80
:1006B000990F990BA984BA88CB88DC88ED88FE88CD
:1006C0000F89188D492F592F692F792F892F0E9453
:1006D000DE0E59016A017B018987192F609103039E
:1006E00070910403872F880F880B982F9201A30124
:1006F0000E94360F01E10E94471009850E947D107B
:1007000059016A017B018987192F60E070E0592D3A
:1007100040E034E0440F551F661F771F3A95D1F72C
:10072000882D90E0A0E0B0E0E4E0880F991FAA1FB8
:10073000BB1FEA95D1F7842B952BA62BB72B2E8DBB
:1007400022952F70AC01BD01422B80E090E0A0E12A
:10075000B0E0841B950BA60BB70B4B2E440C440842
:100760009C01AD01642D742D842D942D0FE10E9408
:1007700047101A8A1B8A1C8A5D8BB62FA72FF82F69
:10078000E92F2091010330910203932F990F990BC8
:10079000492F592F692F792F892F03E20E94471083
:1007A00009850E947D1059016A017B018C012A890B
:1007B0003B894C895D896B2F7A2F8F2F9E2F0E944A
:1007C0008610B5E3AB2EBCE0BB2EC12CD12C76013C
:1007D00086010E94DE0EAA84BB84CC84DD84EE8474
:1007E000FF84088919890E94720F29873A8B4B8BE5
:1007F0005C8B6D8B7E8B8F8B988F0DE00E946010D1
:100800002A873B874C875D876E877F87888B998B8C
:1008100020910B0330910C03932F990F990BAA840D
:10082000BB846A017B01082F1989492F592F692F31
:10083000792F892F0E94DE0E0E94DE0E09E10E94B0
:100840006010A984BA88CB88DC88ED88FE880F897F
:10085000188D0E947D102A873B874C875D876E87A5
:100860007F87888B998B2091090330910A03932FFE
:10087000990F990B492F592F692F792F892F0E9492
:10088000DE0E03E10E94601059016A017B018C01B8
:100890002A853B854C855D856E857F85888999890C
:1008A0000E947D10232F342F452F562F672F782F2E
:1008B000892F990F990B59016A017B01E82F192F94
:1008C0002091070330910803932F990F990B492F1B
:1008D000592F692F792F892F04E00E9447100E2F7E
:1008E0000E947D10232F342F452F562FF101248392
:1008F0003583468357838091F402811509F403C13F
:10090000898C9A8CAB8CBC8CFCE29F1AF1E0AF0A0C
:10091000B108CF80D884DC24CD24DC24F12CED2C4C
:10092000DC2CC12C46E0CC0CDD1CEE1CFF1C4A95D7
:10093000D1F70091110310911203D801A295B2953D
:10094000B07FBA27A07FBA2780E090E0C81AD90A02
:10095000EA0AFB0AA0911303B09114039401A501C4
:100960000E94D60EC61AD70AE80AF90A10E4D10E78
:10097000E11CF11CDD0C6701CC1CDD1CEE08FF083E
:10098000A0911003B0E00E94CB0E472E582E692E86
:10099000990F7708E3E0659457944794EA95D9F75F
:1009A00020E8520E611C711CA0911503BA2FBB0FD9
:1009B000BB0B94010E94D60E672F782F892F990FB9
:1009C000990B8595779567958595779567959201AC
:1009D000A3010E94660E672F782F892F990F990B1C
:1009E0008595779567958595779567959B01AC017A
:1009F000405E5F4FA0910E03B0910F030E94D60E90
:100A0000705E8F4F9F4F672F782F892F990F990B0B
:100A1000B6E0859577956795BA95D9F79601A701C0
:100A20000E94660E6B017C01D7FAB701661F771F23
:100A3000880B990B60F99B01AC010E94660E9B012B
:100A4000AC0107E055954795379527950A95D1F75D
:100A5000A0910D03B0E00E94CB0E24E09595879500
:100A6000779567952A95D1F7C61AD70AE80AF90A41
:100A700031E0C316D104E10439E1F306F4F1D12CDD
:100A8000E12C39E1F32E2D2D3E2D4F2DFF0C550B72
:100A900084E04595379527958A95D9F7A4E60E9475
:100AA000CB0E672F782F892F86957795679586953A
:100AB00077956795D10118966D937D938D931D92CF
:100AC0008D8D6E960FB6F894DEBF0FBECDBFDF9151
:100AD000CF911F910F91FF90EF90DF90CF90BF903B
:100AE000AF909F908F907F906F905F904F903F90CE
:100AF0002F9008959601A601F9CEF7FEC4CFE12C00
:100B0000F12C6701C0CF1086118612861386D8CFCC
:100B1000CF93880F0E943206C82F811105C00E9412
:100B200054068C2FCF9108950E945406C1E0F9CF4E
:100B30000F931F93CF93DF9300D000D000D00F927C
:100B4000CDB7DEB76E837F83182F110F812F0E94E0
:100B5000320681110EC00E94540680E027960FB61F
:100B6000F894DEBF0FBECDBFDF91CF911F910F91E3
:100B7000089580E00E945806811569F3812F8160F5
:100B80000E943206811539F30E94690689830E940A
:100B900069068A830E9469068B830E9469068D8399
:100BA0000E9469068C830E946906082F0E947206C3
:100BB000182F0E9454069981929597702AE0898196
:100BC0008F70929F800D1124EE81FF8180839A8126
:100BD000929597708A818F70929F800D11248183E6
:100BE0009B81929593703B813F70929F300D1124B1
:100BF00032838D81877083839C81929593708C81E1
:100C00008F70929F800D1124848304FB882780F9C4
:100C100081958A700F70800F8583812F82958F70E8
:100C20001F70829F100D1124168381E097CF80E6FC
:100C30009AEE2091BC0027FF02C081E00895019741
:100C4000C1F784E98093BC0080E008951092B90058
:100C500088E48093B80088B1806388B984E0809389
:100C6000BC000895CF93C82F84EA8093BC000E94F3
:100C700017068115A9F0C093BB0084E88093BC00DF
:100C80000E941706811561F08091B900887F883134
:100C900049F09091B900987F81E0903409F080E0AC
:100CA000CF91089581E0FCCF84E98093BC00089542
:100CB0008093BB0084E88093BC000E9417068115D6
:100CC00039F09091B900987F81E0983209F080E086
:100CD000089584EC8093BC000E94170681118091D6
:100CE000BB00089584E88093BC000E941706811120
:100CF0008091BB000895FB0120813181B9016F5FB4
:100D00007F4F60837183280F391FD9014C93208155
:100D10003181820F931FFC0110820895CF93DF93DE
:100D200000D0CDB7DEB789839A83FA01DB012D911C
:100D30003D9149815A81420F531F9081911107C003
:100D4000FA0110820F900F90DF91CF9108953196A4
:100D50002F5F3F4FDB012D933D93CF010197DC01C6
:100D60008C91DA018C93E2CFCF92DF92EF92FF92D7
:100D70001F93CF93DF93CDB7DEB72F970FB6F894BD
:100D8000DEBF0FBECDBF8C879D876E877F876901D1
:100D90007A0110E0C114D104E104F10481F440E3CC
:100DA0002F960FB6F894DEBF0FBECDBFDF91CF9167
:100DB0001F91FF90EF90DF90CF900C947B06B601CF
:100DC000C7012AE030E040E050E00E948A0EFE01B8
:100DD0003196E10FF11D1F5F605D6083C601D70191
:100DE00069017A010A97A105B10548F711110EC0F2
:100DF0002F960FB6F894DEBF0FBECDBFDF91CF9117
:100E00001F91FF90EF90DF90CF9008951150FE0159
:100E10003196E10FF11D40816E857F858C859D8522
:100E20000E947B06E3CFCF93DF9300D000D000D0A9
:100E3000CDB7DEB78E834A835B836C837D83298342
:100E40002A9A8FEF0E94520A2A988E8180640E940B
:100E5000520A8D810E94520A8C810E94520A8B8113
:100E60000E94520A8A810E94520A89810E94520A73
:100E70008AE089838FEF0E94520A87FF0AC0898126
:100E8000815089838111F6CF2A9A8FEF0E94520AEE
:100E90008FEF0F900F900F900F900F900F90DF91AA
:100EA000CF9108952A9A8FEF0C94520ACF932A9AE1
:100EB000C0E58FEF0E94520AC150D9F7CF91089533
:100EC000AF92BF92CF92DF92EF92FF920F931F9358
:100ED000CF93DF9300D000D0CDB7DEB70E94490A90
:100EE0000E94400A2FEF89EF90E02150804090400F
:100EF000E1F700C000000E9456078CE092E00E94DB
:100F00006E0A14E125E960E070E0AB0180E00E9428
:100F10001307082F0E9452078BE192E00E946E0A8D
:100F2000E02FE295EF70F0E0ED51FD4F80810E94DF
:100F3000670AE02FEF70F0E0ED51FD4F80810E94D5
:100F4000670A8DE991E00E946E0A0130C9F0EFE373
:100F5000FCE93197F1F700C00000115099F681E0EB
:100F600090E00F900F900F900F90DF91CF911F9115
:100F70000F91FF90EF90DF90CF90BF90AF900895CA
:100F80008DE292E00E946E0A27E84AEA51E060E0B2
:100F900070E088E00E941307182F8CE392E00E9413
:100FA0006E0AE12FE295EF70F0E0ED51FD4F808188
:100FB0000E94670AE12FEF70F0E0ED51FD4F808154
:100FC0000E94670A8DE991E00E946E0A113009F0D3
:100FD0003FC07E01FFEFEF1AFF0A6E0125E0C20E4F
:100FE000D11C57018FEF0E94520AF50181935F01D6
:100FF000EC15FD05B9F70E9452078EE492E00E94BD
:101000006E0AF70101917F01E02FE295EF70F0E0A9
:10101000ED51FD4F80810E94670A0F70E02FF0E0D4
:10102000ED51FD4F80810E94670A80E20E94670AAD
:10103000EC14FD0431F78DE991E00E946E0A8B817A
:10104000813019F49C819A3A51F082E090E089CF86
:101050000E9452078DE592E00E946E0A80E0809324
:10106000250582E892E00E946E0AE12CF12C92E3C1
:10107000C92ED12C2A9A8FEF0E94520A8FEF0E941C
:10108000520A8FEF0E94520A21E060E070E0AB014B
:1010900087E30E941307082F0E9452070F3F09F4AD
:1010A00080C041E050E060E080912505811101C0E1
:1010B00040E070E4749F702D112440E021E089E24B
:1010C0000E941307182F0E94520711116AC083E96A
:1010D00092E00E946E0AC7010E947B0A89EA92E0B0
:1010E0000E946E0A89EC92E00E946E0A21E060E0A4
:1010F00070E0AB018AE30E94130781119DC08E014D
:101100000F5F1F4F7E01F5E0EF0EF11C68018FEFBE
:101110000E94520AF60181936F01EE16FF06B9F79D
:101120000E945207898186FB882780F980932505D4
:1011300089ED92E00E946E0AF801D1908F01ED2DA9
:10114000E295EF70F0E0ED51FD4F80810E94670A5B
:10115000ED2DEF70F0E0ED51FD4F80810E94670AA8
:1011600080E20E94670A0E151F0531F78091250560
:10117000811509F45EC08EEF91E00E946E0A21E0B5
:1011800040E052E060E070E080E10E941307182F19
:101190000E945207111155C00E94440A80E090E05D
:1011A000E0CEC701B6010E94760E892B71F581EB66
:1011B00092E00E946E0AE02FE295EF70F0E0ED51B0
:1011C000FD4F80810E94670A0F70E02FF0E0ED5123
:1011D000FD4F80810E94670A84E292E00E946E0ABD
:1011E000E12FE295EF70F0E0ED51FD4F80810E941C
:1011F000670AE12FEF70F0E0ED51FD4F80810E9412
:10120000670A8DE991E00E946E0A8FE39CE90197DD
:10121000F1F700C000009FEFE91AF90AE4EFEE16BB
:10122000E1E0FE0609F026CF83E090E0111199CEAF
:1012300059CF85E092E0A1CF0E94520784E090E070
:1012400090CE809125058111A7CF85E090E089CED1
:10125000CF92DF92EF92FF920F931F93CF93DF9382
:1012600000D000D0CDB7DEB70E94490A0E94400AE4
:101270000E94560714E125E960E070E0AB0180E0D0
:101280000E941307082F0E9452070130B9F08FE324
:101290009CE90197F1F700C00000115061F700E0F0
:1012A000802F0F900F900F900F90DF91CF911F9193
:1012B0000F91FF90EF90DF90CF90089527E84AEAD2
:1012C00051E060E070E088E00E941307182F813041
:1012D00009F070C07E019FEFE91AF90A6E01E5E09E
:1012E000CE0ED11C8FEF0E94520AF70181937F012D
:1012F000CE16DF06B9F70E9452078B81813079F64E
:101300009C819A3A61F68093250588EEE82E83E069
:10131000F82E21E060E070E0AB0187E30E94130744
:10132000D82E0E945207F2E0DF1608F447C08FE380
:101330009FE10197F1F700C00000F1E0EF1AF1081A
:1013400041F71111ACCF21E060E070E0AB018AE31E
:101350000E941307811117C07E018FEFE81AF80A67
:101360006E0195E0C90ED11C8FEF0E94520AF70161
:1013700081937F01CE16DF06B9F7898186FB882726
:1013800080F9809325050E94520721E040E052E059
:1013900060E070E080E10E941307182F0E9452075E
:1013A000111529F080912505811509F478CF0E9447
:1013B000440A76CF0E94520780E0A5CF41E050E07A
:1013C00060E080912505811101C040E070E4749FC8
:1013D000702D112440E021E089E20E941307182FAC
:1013E0000E945207111509F4AECFEFE3FFE13197E8
:1013F000F1F7A1CF0F931F93CF93DF938A01209131
:101400002505211108C0982F872F762F60E0660FE1
:10141000771F881F991F21E0AB01BC0188E10E9462
:101420001307811541F00E94520780E0DF91CF91B0
:101430001F910F9108958EEF0E94520AE8011E5FDE
:1014400089910E94520AC017D107D1F78FEF0E94ED
:10145000520A8FEF0E94520A8FEF0E94520A8F7138
:10146000CFEFDFEF8530F9F68FEF0E94520A81153A
:1014700021F00E94520781E0D9CF2197A1F2F4CF49
:1014800083E58CBD1DBC089581E58CBD81E08DBDDB
:10149000089584B18C6284B9249885B1846185B93A
:1014A0000C94400A8EBD0DB407FEFDCF8EB5089595
:1014B00082E08093C0001092C5008FEC8093C4003E
:1014C00088E08093C10086E08093C20008959091E7
:1014D000C00095FFFCCF8093C6000895CF93DF93A3
:1014E000EC018881811103C0DF91CF91089521968D
:1014F0000E94670AF6CFFF920F931F93CF93DF935B
:1015000000D000D000D0CDB7DEB79C01892B71F49C
:1015100080E30F900F900F900F900F900F90DF913E
:10152000CF911F910F91FF900C94670AFE013196A5
:1015300040E08F01C9016AE070E00E94760EFF244E
:10154000F394F40E805D80832A30310528F04F2D0E
:1015500031969B01453071F7FA948FEFF8120CC069
:101560000F900F900F900F900F900F90DF91CF91F1
:101570001F910F91FF900895F801EF0DF11D8081EB
:101580000E94670AE9CF8F929F92AF92BF92CF924B
:10159000DF92EF92FF920F931F93CF93DF93CDB71C
:1015A000DEB72B970FB6F894DEBF0FBECDBF6B0131
:1015B0007C01C114D104E104F104A9F480E32B9669
:1015C0000FB6F894DEBF0FBECDBFDF91CF911F9154
:1015D0000F91FF90EF90DF90CF90BF90AF909F90D2
:1015E0008F900C94670A8E010F5F1F4FB12C48013A
:1015F000B601C7012AE030E040E050E00E948A0EC8
:10160000AA24A394AB0C605DF8016083FAE0CF16C6
:10161000D104E104F10440F0BA2C0F5F1F4F6901BF
:101620007A018AE0A812E4CFAA94EFEFAE1213C0B9
:101630002B960FB6F894DEBF0FBECDBFDF91CF91D2
:101640001F910F91FF90EF90DF90CF90BF90AF90E0
:101650009F908F900895F401EA0DF11D80810E9402
:10166000670AE2CFCF92DF92EF92FF926B017C018B
:10167000F7FE0BC08DE20E94670AF094E094D094CC
:10168000C094C11CD11CE11CF11CB601C701FF9024
:10169000EF90DF90CF900C94C30ACDB7DEB7C75957
:1016A000D1090FB6F894DEBF0FBECDBF84B18C62F6
:1016B00084B92A9A0E94580A0E94260678942FEF2D
:1016C00039E648E1215030404040E1F700C00000D9
:1016D00086E891E00E946E0A86E70E942A01B82EF1
:1016E00086E7B110A9C187E70E942A01B82E87E7D3
:1016F000B110A2C183E20E945300882E88E60E94A6
:101700008805982E0E9460078C01AA24A394892B37
:1017100009F0A12C85E091E0B11002C082E191E0D6
:101720000E946E0A81E291E0811002C08EE291E097
:101730000E946E0A8DE391E0911002C08AE491E06C
:101740000E946E0A89E591E0012B11F087E691E095
:101750000E946E0A6E0181E8C80ED11C7E019DE8D0
:10176000E90EF11C8CE0F60111928A95E9F7CA5650
:10177000DF4F19821882C659D04087E0F7011192D5
:101780008A95E9F700E010E0B11409F43FC0B60112
:10179000809100010E941402B82EF6018481958187
:1017A000A681B7812091200500E010E0211519F1F4
:1017B00040902105509022056090230570902405EB
:1017C000A201B301465F5F4F6F4F7F4F01E010E012
:1017D000481759076A077B0770F0AC01BD01465FE7
:1017E0005F4F6F4F7F4F441555056605770508F02D
:1017F00000E0000F111F8093210590932205A09314
:101800002305B093240581E080932005811439F0ED
:10181000BE016A567F4F83E20E946500882E9114B4
:1018200029F0B70188E60E949805982EA11409F4C2
:10183000F9C1CA56DF4F28803980C659D040CC56EE
:10184000DF4F19821882C459D040809101019091D4
:101850000201A0910301B0910401109798408040CB
:1018600079F480911A0590911B05892B49F440EA7F
:1018700051E0BE016C567F4FCE0101960E948E064C
:101880009110DDC049EC51E0BE016C567F4FCE0196
:1018900001960E948E0620911C0530911D054091F5
:1018A0001E0550911F05BE016C567F4FCE0101965B
:1018B0000E94B4064FEC51E0BE016C567F4FCE0142
:1018C00001960E948E064CE2BE016C567F4FCE01FF
:1018D00001960E947B06F6014080518062807380F1
:1018E00077FE10C04DE2BE016C567F4FCE010196CF
:1018F0000E947B067094609450944094411C511C4B
:10190000611C711CB201C30124E630E040E050E0EC
:101910000E94AC0E2B013C01BE016C567F4FCE01E4
:1019200001960E94B4064EE2BE016C567F4FCE0176
:1019300001960E947B06FAE04F165104610471047F
:1019400044F440E3BE016C567F4FCE0101960E94E5
:101950007B069201A301BE016C567F4FCE0101961A
:101960000E94B4064CE2BE016C567F4FCE01019638
:101970000E947B06F6012481358146815781BE0194
:101980006C567F4FCE0101960E94B4064CE2BE0118
:101990006C567F4FCE0101960E947B06910140E07C
:1019A00050E0BE016C567F4FCE0101960E94B406F6
:1019B0004CE2BE016C567F4FCE0101960E947B0621
:1019C00047E751E00130110539F04AE751E00230B4
:1019D000110511F04FE751E0BE016C567F4FCE016B
:1019E00001960E948E064DE951E0BE016C567F4F74
:1019F000CE0101960E948E06CE0101960E946E0ACB
:101A000080911A0590911B05CC56DF4F08811981F2
:101A1000C459D0409C01200F311F2130324008F0C2
:101A200022C1FE013196DC01A65EBC4F9E012F5FF4
:101A30003F4F200F311F31C1809300015BCE41ED3C
:101A400051E0BE016C567F4FCE0101960E948E067A
:101A5000F7017680FAE07F1640F440E3BE016C5651
:101A60007F4FCE0101960E947B06272D30E040E09B
:101A700050E0BE016C567F4FCE0101960E94B40625
:101A80004DE2BE016C567F4FCE0101960E947B064F
:101A9000F7017580FAE07F1640F440E3BE016C5612
:101AA0007F4FCE0101960E947B06272D30E040E05B
:101AB00050E0BE016C567F4FCE0101960E94B406E5
:101AC0004DE2BE016C567F4FCE0101960E947B060F
:101AD000F7017480FAE07F1640F440E3BE016C56D3
:101AE0007F4FCE0101960E947B06272D30E040E01B
:101AF00050E0BE016C567F4FCE0101960E94B406A5
:101B000040E2BE016C567F4FCE0101960E947B06DB
:101B1000F7017280FAE07F1640F440E3BE016C5694
:101B20007F4FCE0101960E947B06272D30E040E0DA
:101B300050E0BE016C567F4FCE0101960E94B40664
:101B40004AE3BE016C567F4FCE0101960E947B0690
:101B5000F7017180FAE07F1640F440E3BE016C5655
:101B60007F4FCE0101960E947B06272D30E040E09A
:101B700050E0BE016C567F4FCE0101960E94B40624
:101B80004AE3BE016C567F4FCE0101960E947B0650
:101B9000F7017080FAE07F1640F440E3BE016C5616
:101BA0007F4FCE0101960E947B06272D30E040E05A
:101BB00050E0BE016C567F4FCE0101960E94B406E4
:101BC00082CEF901E65EFC4F10822F5F3F4F32302C
:101BD000C0F320E030E08130E2E09E0720F420E016
:101BE00032E0281B390B280F391F20931A05309338
:101BF0001B05609101017091020180910301909198
:101C000004014AE153E00E94FA0981112EC084EDDB
:101C100091E00E946E0A0E942809AA24A3948130B0
:101C200009F0A12C84E690E0FFEF21EE34E0F150C2
:101C300020403040E1F700C000000197A9F78091F3
:101C40001C0590911D05A0911E05B0911F050A96D7
:101C5000A11DB11D80931C0590931D05A0931E0529
:101C6000B0931F057FCD9C01B2CF8091010190916F
:101C70000201A0910301B09104010196A11DB11DC3
:101C80008093010190930201A0930301B09304019A
:101C900080E090E0C6CE41914D932E173F07D9F7D3
:101CA000080F191F00931A0510931B05BBCFA29FA5
:101CB000B001B39FC001A39F700D811D1124911D20
:101CC000B29F700D811D1124911D0895DB018F932A
:101CD0009F930E94CB0EBF91AF91A29F800D911D4B
:101CE000A39F900DB29F900D11240895AA1BBB1BBA
:101CF00051E107C0AA1FBB1FA617B70710F0A61B0C
:101D0000B70B881F991F5A95A9F780959095BC012C
:101D1000CD010895A1E21A2EAA1BBB1BFD010DC027
:101D2000AA1FBB1FEE1FFF1FA217B307E407F5078B
:101D300020F0A21BB30BE40BF50B661F771F881F67
:101D4000991F1A9469F760957095809590959B01FD
:101D5000AC01BD01CF010895052E97FB1EF4009440
:101D60000E94C30E57FD07D00E948A0E07FC03D0C5
:101D70004EF40C94C30E50954095309521953F4FED
:101D80004F4F5F4F089590958095709561957F4F67
:101D90008F4F9F4F08950E94570EA59F900DB49F9F
:101DA000900DA49F800D911D11240895B7FF0C94F0
:101DB000CB0E0E94CB0E821B930B0895DF93CF9323
:101DC0001F930F939A9DF02D219FF00D8B9DF00D89
:101DD0008A9DE02DF10D039FF00D029FE00DF11D96
:101DE0004E9DE00DF11D5E9DF00D4F9DF00D7F931A
:101DF0006F93BF92AF925F934F93D5010E94570E9E
:101E00008B01AC01D7010E94570EEB01E80FF91FBF
:101E1000D6010E942D0F2F913F91D6010E94570E9F
:101E2000C60FD71FE81FF91FAF91BF910E942D0F5A
:101E30002F913F910E94570EC60FD71FE81FF91F21
:101E4000D6010E94570EE60FF71F9801BE01CF0181
:101E50000F911F91CF91DF9108950E94570E460F69
:101E6000571FC81FD91F08F43196089597FB57FFD5
:101E70000C94460F9F938F930E94460F6E1B7F0B0F
:101E8000AF91BF918A0B9B0B0895E894DF93CF939A
:101E9000FC01DB010E94570E7F936F93E9019A01C9
:101EA000AC01BF93AF933F932F93DF010E94570E76
:101EB00026F46C1B7D0B820B930B9E01EB01FC0146
:101EC0000E942D0FAF91BF912F913F910E942D0F36
:101ED000BE01CF01F9012F913F91CF91DF9108957C
:101EE000689401C0E894F92FF12B12F00C94A40F20
:101EF000A0E0B0E0EEE7FFE00C941610092E059488
:101F000022F40E940010112392F4F0E80F26FFEF54
:101F1000E094F09400951095B094C094D094A1945E
:101F2000BF0ACF0ADF0AEF0AFF0A0F0B1F0B0E943E
:101F3000AF0F07FC0E940010CDB7DEB7ECE00C94A9
:101F40003210689401C0E8948F929F92CF93DF93F0
:101F50000E94AF0FDF91CF919F908F9008958824BA
:101F60009924F401E401B0E49F93AA279A158B0405
:101F70009C04ED05FE05CF05D007A10798F4AD2F11
:101F8000DC2FCF2FFE2FE92D982C892E982F872F0D
:101F9000762F652F542F432F322F2227B85031F739
:101FA000BF9127C01B2EBF91BB27220F331F441F99
:101FB000551F661F771F881F991F881C991CEE1FCD
:101FC000FF1FCC1FDD1FAA1FBB1F8A149B04EC053B
:101FD000FD05CE05DF05A007B10748F08A189B086C
:101FE000EC09FD09CE09DF09A00BB10B21601A94A1
:101FF000E1F62EF49401AF01BE01CD01000C08956D
:102000006095709580959095309540955095219567
:102010003F4F4F4F5F4F6F4F7F4F8F4F9F4F0895F1
:102020002F923F924F925F926F927F928F929F92E8
:10203000AF92BF92CF92DF92EF92FF920F931F93D6
:10204000CF93DF93CDB7DEB7CA1BDB0B0FB6F89487
:10205000DEBF0FBECDBF09942A88398848885F84C7
:102060006E847D848C849B84AA84B984C884DF8038
:10207000EE80FD800C811B81AA81B981CE0FD11D1C
:102080000FB6F894DEBF0FBECDBFED010895002E50
:10209000083090F0982F872F762F652F542F432FDD
:1020A000322F22270850F4CF220F331F441F551F11
:1020B000661F771F881F991F0A95B2F7002D089594
:1020C00097FD1094002E083098F00850232F342FDD
:1020D000452F562F672F782F892F912DF4CF1594E8
:1020E0009795879577956795579547953795279550
:1020F0000A95AAF71124002D08952A0D3B1D4C1DA9
:102100005D1D6E1D7F1D801F911F08952A193B09BB
:102110004C095D096E097F09800B910B089500241D
:10212000A7FD00942A17300540055005600570058D
:0A213000800590050895F894FFCF94
:10213A007700080000424D503238303A204F4B0D9C
:10214A000A00424D503238303A204641494C0D0A75
:10215A00004248313735303A204F4B0D0A00424889
:10216A00313735303A204641494C0D0A0044533341
:10217A003233313A204F4B0D0A0044533332333154
:10218A003A204641494C0D0A005344204361726487
:10219A003A204F4B0D0A00534420436172643A209F
:1021AA004641494C0D0A00555000444F574E0053C2
:1021BA005441424C45002D2D2D204C6F67676572A6
:1021CA0020506F6B72656E7574202D2D2D0D0A00CF
:1021DA0074696D657374616D702C74656D705F637D
:1021EA002C70726573737572655F70612C6C75788B
:1021FA002C7472656E640D0A00424F4F542B0073A3
:10220A00003230005B53445F4552525D20506F6B81
:10221A0075C5A1616A2072652D696E6963696A6113
:10222A006C697A6163696A652E2E2E0D0A00534421
:10223A0048430D0A00534453430D0A005B53445D5F
:10224A0020434D44302E2E2E0D0A005B53445D2050
:10225A00434D443020726573703D3078005B5344BF
:10226A005D20434D44382E2E2E0D0A005B53445DEB
:10227A0020434D443820726573703D3078005B53BB
:10228A00445D20434D44382052373A20005B534482
:10229A005D20434D443820696C6C6567616C20E2AF
:1022AA008094205344763120696C69204D4D430D4A
:1022BA000A005B53445D2041434D4434312E2E2E97
:1022CA000D0A005B53445D2041434D443431204F95
:1022DA004B206166746572200020697465720D0A6C
:1022EA00005B53445D2041434D443431207761699A
:1022FA0074207235353D3078005B53445D20434D80
:10230A004435382E2E2E0D0A005B53445D204F4370
:10231A00523D003031323334353637383941424351
:04232A0044454600E0
:00000001FF
